:100000000C9435000C945D000C945D000C945D0024
:100010000C945D000C945D000C945D000C945D00EC
:100020000C945D000C945D000C945D000C945D00DC
:100030000C945D000C945D000C945D000C945D00CC
:100040000C9415030C945D000C947D000C94CB0073
:100050000C945D000C945D000C945D000C945D00AC
:100060000C945D000C945D00370211241FBECFEF8D
:10007000D8E0DEBFCDBF11E0A0E0B1E0E4E8F7E0FA
:1000800002C005900D92AE31B107D9F711E0AEE193
:10009000B1E001C01D92A13DB107E1F710E0CAE651
:1000A000D0E004C02297FE010E94BC03C836D107ED
:1000B000C9F70E9406030C945F000C940000F894AA
:1000C0000C94C00386EA91E060E071E00E94F302C4
:1000D00008950F931F9306EA11E0C80140E855E226
:1000E00060E070E00E940601C80160E071E00E94DB
:1000F000F3021F910F91089508951F920F920FB66A
:100100000F9211242F933F934F938F939F93EF93CD
:10011000FF938091C00082FD1DC04091C6002091D8
:100120005E0130915F012F5F3F4F2F7330708091E0
:100130006001909161012817390771F0E0915E012B
:10014000F0915F01E25EFE4F408330935F012093A8
:100150005E0102C08091C600FF91EF919F918F9147
:100160004F913F912F910F900FBE0F901F901895B8
:10017000E091B201F091B301E05CFF4F8191919168
:1001800020813181821B930B8F739070892B11F02A
:100190000E947C0008951F920F920FB60F921124B7
:1001A0002F933F938F939F93EF93FF932091A201FF
:1001B0003091A3018091A4019091A50128173907DE
:1001C00031F48091C1008F7D8093C10014C0E09113
:1001D000A401F091A501EE59FE4F20818091A40168
:1001E0009091A50101968F7390709093A5018093D3
:1001F000A4012093C600FF91EF919F918F913F91B1
:100200002F910F900FBE0F901F901895AF92BF9235
:10021000DF92EF92FF920F931F93CF93DF93EC0146
:100220007A018B01DD24403081EE580780E06807B9
:1002300080E0780711F0DD24D39491E0A92EB12C51
:10024000EC89FD89DD2069F0C50108A002C0880F96
:10025000991F0A94E2F7808360E079E08DE390E0F3
:1002600005C0108260E874E88EE190E0A801970173
:100270000E94980321503040404050405695479589
:100280003795279580E12030380720F0DD2011F0E8
:10029000DD24D6CFE889F9893083EA89FB89208378
:1002A00019A2EE89FF89408121E030E0C9010C8C60
:1002B00002C0880F991F0A94E2F7482B4083EE8909
:1002C000FF894081C9010D8C02C0880F991F0A94D3
:1002D000E2F7482B4083EE89FF894081C9010E8CEB
:1002E00002C0880F991F0A94E2F7482B4083EE89D9
:1002F000FF8980810F8C02C0220F331F0A94E2F71E
:10030000209528232083DF91CF911F910F91FF909B
:10031000EF90DF90BF90AF900895DC011C96ED91B7
:10032000FC911D97E05CFF4F21913191808191817B
:10033000281B390B2F733070C9010895DC011C96FE
:10034000ED91FC911D97E05CFF4F20813181E054DD
:10035000F040DF01AE5BBF4F8D919C911197281744
:10036000390719F42FEF3FEF07C08D919C91E80FEB
:10037000F91F8081282F30E0C9010895DC011C9607
:10038000ED91FC911D97E05CFF4F20813181E0549D
:10039000F040DF01AE5BBF4F8D919C911197281704
:1003A000390719F42FEF3FEF10C08D919C911197F1
:1003B000E80FF91F20818D919C91119701968F7301
:1003C000907011969C938E9330E0C9010895DC01E2
:1003D00091968C919197882339F05496ED91FC91E8
:1003E0005597808186FFF9CF91961C920895CF93FF
:1003F000DF93EC01EE85FF85E05CFF4F20813181CA
:10040000E054F0402F5F3F4F2F733070DF01AE5B41
:10041000BF4F8D919C91119728173907D1F3E05C5C
:10042000FF4F80819181E054F040E80FF91F608315
:10043000EE85FF85E05CFF4F31832083EE89FF89E5
:10044000208181E090E00F8C02C0880F991F0A94F0
:10045000E2F7282B208381E089A3EC89FD89808144
:100460008064808381E090E0DF91CF9108951092C5
:10047000A9011092A80188EE93E0A0E0B0E080937B
:10048000AA019093AB01A093AC01B093AD0181E1BF
:1004900091E09093A7018093A6018EE191E0909363
:1004A000B3018093B20182E691E09093B50180930D
:1004B000B40185EC90E09093B7018093B60184EC91
:1004C00090E09093B9018093B80180EC90E0909314
:1004D000BB018093BA0181EC90E09093BD018093C1
:1004E000BC0182EC90E09093BF018093BE0186EC4A
:1004F00090E09093C1018093C00184E08093C20199
:1005000083E08093C30187E08093C40185E08093FA
:10051000C50181E08093C6010895CF92DF92EF92EA
:10052000FF920F931F93CF93DF937C016B018A019E
:10053000C0E0D0E00FC0D6016D916D01D701ED9103
:10054000FC910190F081E02DC7010995C80FD91FDA
:10055000015010400115110571F7CE01DF91CF91C7
:100560001F910F91FF90EF90DF90CF900895EF9241
:10057000FF920F931F938C01DC01ED91FC91019090
:10058000F081E02D6DE009957C01D801ED91FC91A1
:100590000190F081E02DC8016AE009959C012E0DC3
:1005A0003F1DC9011F910F91FF90EF900895CF93C8
:1005B000DF93EC016115710519F420E030E00FC004
:1005C000DB010D900020E9F71197A61BB70BE8811E
:1005D000F9810280F381E02DAD0109959C01C901EB
:1005E000DF91CF910895EF92FF920F931F937C01BB
:1005F0000E94D7028C01C7010E94B702080F191F81
:10060000C8011F910F91FF90EF900895CF93DF9352
:100610000E945D030E946900C8EBD0E00E94620066
:100620002097E1F30E94B800F9CF1F920F920FB606
:100630000F9211242F933F938F939F93AF93BF9368
:100640008091CC019091CD01A091CE01B091CF01CC
:100650003091D0010196A11DB11D232F2D5F2D37A3
:1006600020F02D570196A11DB11D2093D00180933C
:10067000CC019093CD01A093CE01B093CF01809196
:10068000C8019091C901A091CA01B091CB01019616
:10069000A11DB11D8093C8019093C901A093CA0107
:1006A000B093CB01BF91AF919F918F913F912F91CB
:1006B0000F900FBE0F901F901895789484B58260AC
:1006C00084BD84B5816084BD85B5826085BD85B5F6
:1006D000816085BDEEE6F0E0808181608083E1E8A5
:1006E000F0E01082808182608083808181608083DD
:1006F000E0E8F0E0808181608083E1EBF0E08081E0
:1007000084608083E0EBF0E0808181608083EAE7B1
:10071000F0E080818460808380818260808380813A
:10072000816080838081806880831092C1000895F9
:10073000A1E21A2EAA1BBB1BFD010DC0AA1FBB1FE5
:10074000EE1FFF1FA217B307E407F50720F0A21B57
:10075000B30BE40BF50B661F771F881F991F1A94C4
:1007600069F760957095809590959B01AC01BD01EE
:10077000CF010895EE0FFF1F0590F491E02D09942D
:04078000F894FFCF1B
:1007840048656C6C6F20776F726C64210000000008
:0E07940000F7018D028D01BE019E01E70100FC
:00000001FF
