:100000000C9480000C94A8000C94A8000C94A800F8
:100010000C94A8000C94A8000C94A8000C94A800C0
:100020000C94A8000C94A8000C94A8000C94A800B0
:100030000C94A8000C94A8000C94A8000C94A800A0
:100040000C947A040C94A8000C94F8050C944606C1
:100050000C94A8000C94A8000C94A8000C94A80080
:100060000C94A8000C94A8000000000024002700B5
:100070002A0000000000250028002B0000000000DE
:1000800023002600290004040404040404040202DA
:100090000202020203030303030301020408102007
:1000A0004080010204081020010204081020000012
:1000B0000007000201000003040600000000000029
:1000C0000000494E46494E4954594E414ECDCCCC84
:1000D0003D0AD7233C17B7D13877CC2B329595E61C
:1000E000241FB14F0A000020410000C84200401CFC
:1000F0004620BCBE4CCA1B0E5AAEC59D7400B2074A
:1001000011241FBECFEFD8E0DEBFCDBF11E0A0E0CD
:10011000B1E0E2ECF6E102C005900D92AC31B1071E
:10012000D9F711E0ACE1B1E001C01D92AF3DB107DC
:10013000E1F710E0C0E0D1E004C02297FE010E9488
:100140005B0BCE3FD107C9F70E9482090C94AE0029
:100150000C940000662777270C94B100F8940C9457
:100160005F0BA0E0B0E0E7EBF0E00C94280BEC01B3
:100170005B016115710519F0FB0191838083F99092
:100180008F2D90E00E94D60A892BC9F7FDE2FF1659
:1001900021F4F990EE24E39405C02BE2F21609F461
:1001A000F990EE248E0101501040C80162EC70E01D
:1001B00043E050E00E941102892B01F58E010E5F91
:1001C0001F4FC80165EC70E045E050E00E9411024D
:1001D000892B19F48E01095F1F4FA114B10419F086
:1001E000F50111830083E0FC04C070E090E080E83A
:1001F00014C070E090E080E86FEF08C1C8016AECBD
:1002000070E043E050E00E941102892B69F4A114D0
:10021000B10429F470E090E080EC6FE7F7C022961B
:10022000F501D183C083F6CF8824992440E050E0C3
:1002300060E070E0EF2DE053EA30A0F5F2E0EF2A45
:100240008E2D90E09C0128703070E2FE06C0232BBA
:1002500079F50894811C911C2BC0232B19F008946C
:1002600081089108DB01CA0112E0880F991FAA1FBB
:10027000BB1F1A95D1F7480F591F6A1F7B1F440FE8
:10028000551F661F771F4E0F511D611D711D483987
:1002900029E9520729E9620729E1720748F084E059
:1002A000E82A06C0EE3F31F4E3FC39C098E0E92AC1
:1002B000F990C0CFE53311F0E53189F529912D3260
:1002C00019F4E0E1EE2A05C02B3219F081E090E04C
:1002D00003C0299182E090E0E22FE053EA3018F069
:1002E000C81BD90B1CC020E030E0FCE020383F07E1
:1002F0005CF4C901880F991F880F991F280F391FB7
:10030000220F331F2E0F311DE991E053EA3068F3BD
:10031000E4FE03C0309521953F4F820E931ECE2CF4
:10032000DD24E1FE07C0A114B10421F02197F501FD
:10033000D183C083CB01BA010E94C1097B018C012A
:10034000F3E0CF22DD2423E0C216D10421F417FB11
:10035000109517F9109557016801C801B70120E001
:1003600030E040E050E00E949109882309F44AC03F
:1003700097FE0DC021EEE22E20E0F22E90948194A3
:1003800091089394C0E2D0E000E010E012C099EF31
:10039000E92E90E0F92EF6CFF701259135914591A0
:1003A0005491C601B5010E94730A5B016C018C1A5D
:1003B0009D0A8C169D0684F7D595C7950F5F1F4F34
:1003C0000630110529F08CEF9FEFE80EF91EF1CFF2
:1003D000C501D6017C018D018C2D880F8D2D881FC4
:1003E0008F3F51F0C601B50120E030E040E050E021
:1003F0000E949109882331F482E290E09093DE011B
:100400008093DD017E2D9F2D802F612F272F392F87
:10041000482F562FB901CA01CDB7DEB7ECE00C94D6
:10042000440BFB01DC014150504088F08D91813438
:100430001CF08B350CF4805E659161341CF06B35DB
:100440000CF4605E861B611171F3990B0895881B93
:10045000FCCF80912801882349F08091030161E05D
:100460000E94A3058091050160E008C0809103010E
:1004700060E00E94A3058091050161E00E94A30550
:1004800080912901882349F08091070161E00E9451
:10049000A3058091090160E008C08091070160E038
:1004A0000E94A3058091090161E00E94A3050895BF
:1004B0006F927F928F929F92AF92BF92CF92DF9274
:1004C000EF92FF920F931F930E94C2049B01AC0115
:1004D00080910B018823E1F410921C0110921D0100
:1004E00010921E0110921F01109220011092210102
:1004F00010922201109223011092240110922501E2
:10050000109226011092270181E0809329015AC0A0
:10051000A0901C01B0901D01C0901E01D0901F0141
:100520006090200170902101809022019090230121
:10053000E0902401F09025010091260110912701FF
:10054000D401C3018A0D9B1DAC1DBD1D8E0D9F1DC9
:10055000A01FB11F0097A105B105C9F410921C019D
:1005600010921D0110921E0110921F011092200185
:100570001092210110922201109223011092240165
:100580001092250110922601109227010AC02A1507
:100590003B054C055D0528F0E216F3060407150738
:1005A00018F41092290108C0621673068406950695
:1005B00030F481E0809329011092280105C0109247
:1005C000290181E0809328011F910F91FF90EF9006
:1005D000DF90CF90BF90AF909F908F907F906F9063
:1005E0000895AF92BF92CF92DF92EF92FF920F9356
:1005F0001F93DF93CF93CDB7DEB764970FB6F89410
:10060000DEBF0FBECDBF8BEB91E00E940807892BA8
:1006100009F43BC164E670E080E090E00E94D00401
:1006200000E010E0EE24FF24DD24D3945E01089462
:10063000A11CB11CCC24C394BEC060910B016C25DD
:1006400060930B018BEB91E070E04AE050E00E9478
:10065000500970C0803709F06FC060910B018BEBBF
:1006600091E070E04AE050E00E943D098BEB91E0A0
:100670006BE30E943208609128018BEB91E070E0FF
:100680004AE050E00E943D098BEB91E06BE30E9451
:100690003208609129018BEB91E070E04AE050E074
:1006A0000E943D098BEB91E06BE30E9432080E94AF
:1006B000C204AB01BC018BEB91E02AE030E00E9468
:1006C000DA088BEB91E06BE30E94320840911C0149
:1006D00050911D0160911E0170911F018BEB91E003
:1006E0002AE030E00E94DA088BEB91E06BE30E9495
:1006F00032084091200150912101609122017091B6
:1007000023018BEB91E02AE030E00E94DA088BEBCA
:1007100091E06BE30E943208409124015091250141
:1007200060912601709127018BEB91E02AE030E087
:100730000E94E908DD243FC08B33B9F5E114F104D0
:10074000C1F40A0D1B1DF8011082C5010E94AA0008
:100750000E94950960931C0170931D0180931E01F6
:1007600090931F01198200E010E091E0E92EF12C36
:1007700022C0F1E0EF16F104C1F40A0D1B1DF801CF
:100780001082C5010E94AA000E9495096093200171
:10079000709321018093220190932301198200E03C
:1007A00010E082E0E82EF12C06C0F501E00FF11F09
:1007B00080830F5F1F4F8BEB91E00E940807892B0E
:1007C00059F00336110544F48BEB91E00E94390790
:1007D000813609F03FCF31CFDD2009F456C0CE017C
:1007E0000196080F191FF80110820E94AA000E94AA
:1007F00095096093240170932501809326019093BD
:100800002701E0901C01F0901D0100911E01109144
:100810001F010E94C2046E0D7F1D801F911F6093F7
:100820001C0170931D0180931E0190931F01209164
:100830002001309121014091220150912301260F86
:10084000371F481F591F20932001309321014093E7
:100850002201509323018091240190912501A091C0
:100860002601B0912701820F931FA41FB51F80930B
:10087000240190932501A0932601B09327018BEBCF
:1008800091E060E071E00E946F0964960FB6F89401
:10089000DEBF0FBECDBFCF91DF911F910F91FF90B3
:1008A000EF90DF90CF90BF90AF9008950E94F1023B
:1008B0000E9458020E94290208958091030161E07C
:1008C0000E9464058091050161E00E9464058091A9
:1008D000070161E00E9464058091090161E00E94C6
:1008E00064058BEB91E040E855E260E070E00E9427
:1008F000810608951F920F920FB60F9211242F9325
:100900003F938F939F93AF93BF9380912E019091CC
:100910002F01A0913001B091310130913201019647
:10092000A11DB11D232F2D5F2D3720F02D570196CE
:10093000A11DB11D2093320180932E0190932F01B0
:10094000A0933001B093310180912A0190912B0145
:10095000A0912C01B0912D010196A11DB11D809394
:100960002A0190932B01A0932C01B0932D01BF91EC
:10097000AF919F918F913F912F910F900FBE0F904C
:100980001F9018958FB7F89420912E0130912F0168
:1009900040913001509131018FBFB901CA010895D2
:1009A0009B01AC017FB7F89480912A0190912B01B3
:1009B000A0912C01B0912D0166B5A89B05C06F3F99
:1009C00019F00196A11DB11D7FBFBA2FA92F982F35
:1009D0008827860F911DA11DB11D62E0880F991F08
:1009E000AA1FBB1F6A95D1F7BC012DC0FFB7F894B1
:1009F00080912A0190912B01A0912C01B0912D01A1
:100A0000E6B5A89B05C0EF3F19F00196A11DB11DE9
:100A1000FFBFBA2FA92F982F88278E0F911DA11DD8
:100A2000B11DE2E0880F991FAA1FBB1FEA95D1F7FD
:100A3000861B970B885E9340C8F22150304040409F
:100A4000504068517C4F211531054105510571F623
:100A50000895789484B5826084BD84B5816084BD36
:100A600085B5826085BD85B5816085BDEEE6F0E027
:100A7000808181608083E1E8F0E010828081826083
:100A80008083808181608083E0E8F0E08081816004
:100A90008083E1EBF0E0808184608083E0EBF0E034
:100AA000808181608083EAE7F0E0808184608083D8
:100AB0008081826080838081816080838081806882
:100AC00080831092C1000895CF93DF93482F50E0A8
:100AD000CA0186569F4FFC0134914A575F4FFA0175
:100AE0008491882369F190E0880F991FFC01E859EF
:100AF000FF4FA591B491FC01EE58FF4FC591D491E1
:100B0000662351F42FB7F8948C91932F90958923F5
:100B10008C93888189230BC0623061F42FB7F894DD
:100B20008C91932F909589238C938881832B888334
:100B30002FBF06C09FB7F8948C91832B8C939FBFD7
:100B4000DF91CF910895482F50E0CA0182559F4F01
:100B5000FC012491CA0186569F4FFC0194914A578B
:100B60005F4FFA013491332309F440C0222351F13D
:100B7000233071F0243028F42130A1F0223011F517
:100B800014C02630B1F02730C1F02430D9F404C0AD
:100B9000809180008F7703C0809180008F7D80934B
:100BA000800010C084B58F7702C084B58F7D84BD6E
:100BB00009C08091B0008F7703C08091B0008F7D15
:100BC0008093B000E32FF0E0EE0FFF1FEE58FF4FD1
:100BD000A591B4912FB7F894662321F48C91909548
:100BE000892302C08C91892B8C932FBF089508957F
:100BF0001F920F920FB60F9211242F933F934F9392
:100C00008F939F93EF93FF938091C00082FD1DC04F
:100C10004091C60020917301309174012F5F3F4FC6
:100C20002F733070809175019091760128173907E4
:100C300071F0E0917301F0917401ED5CFE4F40831F
:100C4000309374012093730102C08091C600FF911C
:100C5000EF919F918F914F913F912F910F900FBEE8
:100C60000F901F901895E091C701F091C801E05CCA
:100C7000FF4F8191919120813181821B930B8F7362
:100C80009070892B11F00E94F70508951F920F9222
:100C90000FB60F9211242F933F938F939F93EF934F
:100CA000FF932091B7013091B8018091B9019091E3
:100CB000BA012817390731F48091C1008F7D8093E4
:100CC000C10014C0E091B901F091BA01E958FE4F9A
:100CD00020818091B9019091BA0101968F73907033
:100CE0009093BA018093B9012093C600FF91EF91D0
:100CF0009F918F913F912F910F900FBE0F901F905A
:100D00001895AF92BF92DF92EF92FF920F931F93CD
:100D1000CF93DF93EC017A018B01DD24403081EE2B
:100D2000580780E0680780E0780711F0DD24D3944D
:100D300091E0A92EB12CEC89FD89DD2069F0C50177
:100D400008A002C0880F991F0A94E2F7808360E030
:100D500079E08DE390E005C0108260E874E88EE1F0
:100D600090E0A80197010E94000B215030404040C4
:100D70005040569547953795279580E120303807A4
:100D800020F0DD2011F0DD24D6CFE889F989308309
:100D9000EA89FB89208319A2EE89FF89408121E03D
:100DA00030E0C9010C8C02C0880F991F0A94E2F749
:100DB000482B4083EE89FF894081C9010D8C02C018
:100DC000880F991F0A94E2F7482B4083EE89FF8928
:100DD0004081C9010E8C02C0880F991F0A94E2F766
:100DE000482B4083EE89FF8980810F8C02C0220F3F
:100DF000331F0A94E2F7209528232083DF91CF91B7
:100E00001F910F91FF90EF90DF90BF90AF900895EA
:100E1000DC011C96ED91FC911D97E05CFF4F219148
:100E2000319180819181281B390B2F733070C9015A
:100E30000895DC011C96ED91FC911D97E05CFF4F3D
:100E400020813181E054F040DF01AE5BBF4F8D91D6
:100E50009C9111972817390719F42FEF3FEF07C01E
:100E60008D919C91E80FF91F8081282F30E0C901F6
:100E70000895DC011C96ED91FC911D97E05CFF4FFD
:100E800020813181E054F040DF01AE5BBF4F8D9196
:100E90009C9111972817390719F42FEF3FEF10C0D5
:100EA0008D919C911197E80FF91F20818D919C9154
:100EB000119701968F73907011969C938E9330E0EA
:100EC000C9010895DC0191968C919197882339F09E
:100ED0005496ED91FC915597808186FFF9CF9196BC
:100EE0001C920895CF93DF93EC01EE85FF85E05CC3
:100EF000FF4F20813181E054F0402F5F3F4F2F732F
:100F00003070DF01AE5BBF4F8D919C911197281718
:100F10003907D1F3E05CFF4F80819181E054F040CC
:100F2000E80FF91F6083EE85FF85E05CFF4F31839A
:100F30002083EE89FF89208181E090E00F8C02C040
:100F4000880F991F0A94E2F7282B208381E089A358
:100F5000EC89FD8980818064808381E090E0DF916D
:100F6000CF9108951092BE011092BD0188EE93E0DA
:100F7000A0E0B0E08093BF019093C001A093C101B5
:100F8000B093C20180E191E09093BC018093BB01DA
:100F900083E391E09093C8018093C70187E791E0D4
:100FA0009093CA018093C90185EC90E09093CC01A5
:100FB0008093CB0184EC90E09093CE018093CD019F
:100FC00080EC90E09093D0018093CF0181EC90E091
:100FD0009093D2018093D10182EC90E09093D40160
:100FE0008093D30186EC90E09093D6018093D50155
:100FF00084E08093D70183E08093D80187E08093D9
:10100000D90185E08093DA0181E08093DB010895C6
:10101000CF92DF92EF92FF920F931F93CF93DF93C4
:101020007C016B018A01C0E0D0E00FC0D6016D9158
:101030006D01D701ED91FC910190F081E02DC70188
:101040000995C80FD91F015010400115110571F7FE
:10105000CE01DF91CF911F910F91FF90EF90DF9024
:10106000CF900895DC01ED91FC910190F081E02D8D
:1010700009950895EF92FF920F931F938C01DC0165
:10108000ED91FC910190F081E02D6DE009957C01DE
:10109000D801ED91FC910190F081E02DC8016AE04A
:1010A00009959C012E0D3F1DC9011F910F91FF90C5
:1010B000EF900895CF93DF93EC016115710519F45A
:1010C00020E030E00FC0DB010D900020E9F7119720
:1010D000A61BB70BE881F9810280F381E02DAD01F9
:1010E00009959C01C901DF91CF9108954F925F92BC
:1010F0007F928F929F92AF92BF92CF92DF92EF92A8
:10110000FF920F931F93DF93CF93CDB7DEB7A197D5
:101110000FB6F894DEBF0FBECDBF2C01742ECB01ED
:10112000223008F42AE019A231E2C32ED12CCC0ED1
:10113000DD1E822E9924AA24BB24672D752FA501BC
:1011400094010E94000B79018A01C801B701A50131
:1011500094010E94E10A472D461B0894C108D1085A
:101160004A3014F4405D01C0495CF6014083E1144B
:10117000F1040105110521F07E2C5F2DC801DDCFA2
:10118000C201B6010E945A08A1960FB6F894DEBFBC
:101190000FBECDBFCF91DF911F910F91FF90EF90C8
:1011A000DF90CF90BF90AF909F908F907F905F9097
:1011B0004F900895DC012115310541F4ED91FC912A
:1011C0000190F081E02D642F099508950E94760822
:1011D0000895EF92FF920F931F937C010E94DA080B
:1011E0008C01C7010E943A089C01200F311FC901E0
:1011F0001F910F91FF90EF900895CF92DF92EF92A1
:10120000FF920F931F93CF93DF93EC016A017B0151
:101210002115310541F4E881F9810190F081E02D3B
:10122000642F09951FC02A303105D1F477FF17C00C
:10123000E881F9810190F081E02D6DE209958C0142
:1012400044275527BA014C195D096E097F09CE0163
:101250002AE00E9476089801280F391F04C02AE06E
:101260000E9476089C01C901DF91CF911F910F91D7
:10127000FF90EF90DF90CF900895EF92FF920F9341
:101280001F937B019A010027F7FC0095102FB801EE
:10129000A7010E94FD081F910F91FF90EF90089504
:1012A000CF92DF92EF92FF920F931F936C017B011D
:1012B0009A010027F7FC0095102FB801A7010E94A2
:1012C000FD088C01C6010E943A08080F191FC801C9
:1012D0001F910F91FF90EF90DF90CF900895EF92C4
:1012E000FF920F931F937C010E945A088C01C70143
:1012F0000E943A08080F191FC8011F910F91FF9013
:10130000EF900895CF93DF930E9429050E945D041A
:10131000C3E3D6E00E9456042097E1F30E9433060F
:10132000F9CF6CD008F481E00895BCD088F09F57C5
:1013300090F0B92F9927B751A0F0D1F0660F771F21
:10134000881F991F1AF0BA95C9F712C0B13081F001
:10135000C3D0B1E00895C0C0672F782F8827B85F49
:1013600039F0B93FCCF3869577956795B395D9F762
:101370003EF490958095709561957F4F8F4F9F4F6C
:101380000895E89409C097FB3EF490958095709578
:1013900061957F4F8F4F9F4F9923A9F0F92F96E9C1
:1013A000BB279395F695879577956795B795F11136
:1013B000F8CFFAF4BB0F11F460FF1BC06F5F7F4FD3
:1013C0008F4F9F4F16C0882311F096E911C07723E5
:1013D00021F09EE8872F762F05C0662371F096E8EE
:1013E000862F70E060E02AF09A95660F771F881FBD
:1013F000DAF7880F9695879597F90895990F000861
:10140000550FAA0BE0E8FEEF16161706E807F907D6
:10141000C0F012161306E407F50798F0621B730B71
:10142000840B950B39F40A2661F0232B242B252BF2
:1014300021F408950A2609F4A140A6958FEF811D95
:10144000811D089597F99F6780E870E060E0089536
:101450009FEF80EC089500240A94161617061806CC
:101460000906089500240A941216130614060506A8
:101470000895092E0394000C11F4882352F0BB0F39
:1014800040F4BF2B11F460FF04C06F5F7F4F8F4F9C
:101490009F4F089557FD9058440F551F59F05F3FD7
:1014A00071F04795880F97FB991F61F09F3F79F086
:1014B00087950895121613061406551FF2CF469508
:1014C000F1DF08C0161617061806991FF1CF86958A
:1014D0007105610508940895E894BB27662777276E
:1014E000CB0197F908950BD0C4CFB5DF28F0BADF50
:1014F00018F0952309F0A6CFABCF1124EECFCADFA9
:10150000A0F3959FD1F3950F50E0551F629FF00116
:10151000729FBB27F00DB11D639FAA27F00DB11D6F
:10152000AA1F649F6627B00DA11D661F829F2227F8
:10153000B00DA11D621F739FB00DA11D621F839F7F
:10154000A00D611D221F749F3327A00D611D231F55
:10155000849F600D211D822F762F6A2F11249F57A3
:1015600050408AF0E1F088234AF0EE0FFF1FBB1FC6
:10157000661F771F881F91505040A9F79E3F510565
:1015800070F060CFAACF5F3FECF3983EDCF3869516
:1015900077956795B795F795E7959F5FC1F7FE2B10
:1015A000880F911D9695879597F90895911106C01A
:1015B000803219F089508550D0F7089599278827EF
:1015C0000895629FD001739FF001829FE00DF11D8D
:1015D000649FE00DF11D929FF00D839FF00D749FAD
:1015E000F00D659FF00D9927729FB00DE11DF91F59
:1015F000639FB00DE11DF91FBD01CF0111240895B6
:10160000A1E21A2EAA1BBB1BFD010DC0AA1FBB1F06
:10161000EE1FFF1FA217B307E407F50720F0A21B78
:10162000B30BE40BF50B661F771F881F991F1A94E5
:1016300069F760957095809590959B01AC01BD010F
:10164000CF0108952F923F924F925F926F927F92B7
:101650008F929F92AF92BF92CF92DF92EF92FF92C2
:101660000F931F93CF93DF93CDB7DEB7CA1BDB0B6E
:101670000FB6F894DEBF0FBECDBF09942A88398813
:1016800048885F846E847D848C849B84AA84B9841A
:10169000C884DF80EE80FD800C811B81AA81B98126
:1016A000CE0FD11D0FB6F894DEBF0FBECDBFED013A
:1016B0000895EE0FFF1F0590F491E02D0994F89422
:0216C000FFCF5A
:1016C2006F6B00020003000400050001000000002F
:0C16D200720708080807390719076207AB
:00000001FF
